:100000000C942D000C94FD020C94FD020C94FD0246
:100010000C94FD020C94FD020C9451020C94FD0210
:100020000C94FD020C94FD020C94FD020C94FD0254
:100030000C94FD020C94FD020C94FD020C94FD0244
:100040000C94FD020C94FD020C94FD020C94FD0234
:100050000C94FD0200600063800011241FBECFE5F8
:10006000D8E0DEBFCDBFE4E5F0E040E017C0B591D9
:10007000A59135912591059107FD0CC0959185912C
:10008000EF01F92FE82F05900D92A217B307D9F7CA
:10009000FE0104C01D92A217B307E1F7E935F4078A
:0E00A00031F70E9447010C945500F894FFCFF1
:1000AE00452BC9F181309105A9F01CF4892B39F04B
:1000BE00089582309105C9F0039711F108952AB37E
:1000CE0081E090E002C0880F991F6A95E2F7822BBB
:1000DE008ABB089527B381E090E002C0880F991F74
:1000EE006A95E2F7822B87BB089524B381E090E0F6
:1000FE0002C0880F991F6A95E2F7822B84BB089580
:10010E0021B381E090E002C0880F991F6A95E2F753
:10011E00822B81BB089581309105B1F01CF4892B9F
:10012E0039F0089582309105D9F0039729F1089599
:10013E002AB381E090E002C0880F991F6A95E2F71A
:10014E00809582238ABB089527B381E090E002C098
:10015E00880F991F6A95E2F78095822387BB0895D1
:10016E0024B381E090E002C0880F991F6A95E2F7F0
:10017E008095822384BB089521B381E090E002C074
:10018E00880F991F6A95E2F78095822381BB0895A7
:10019E00452BC9F181309105A9F01CF4892B39F05A
:1001AE00089582309105C9F0039711F108952BB38C
:1001BE0081E090E002C0880F991F6A95E2F7822BCA
:1001CE008BBB089528B381E090E002C0880F991F81
:1001DE006A95E2F7822B88BB089525B381E090E003
:1001EE0002C0880F991F6A95E2F7822B85BB08958E
:1001FE0022B381E090E002C0880F991F6A95E2F762
:10020E00822B82BB089581309105B1F01CF4892BAD
:10021E0039F0089582309105D9F0039729F10895A8
:10022E002BB381E090E002C0880F991F6A95E2F728
:10023E00809582238BBB089528B381E090E002C0A5
:10024E00880F991F6A95E2F78095822388BB0895DF
:10025E0025B381E090E002C0880F991F6A95E2F7FE
:10026E008095822385BB089522B381E090E002C081
:10027E00880F991F6A95E2F78095822382BB0895B5
:10028E000E94E3012FEF80E792E0215080409040E2
:10029E00E1F700C000000E94DE022FEF80E792E03F
:1002AE00215080409040E1F700C0000080E090E0D7
:1002BE000E949F012FEF80E792E0215080409040F6
:1002CE00E1F700C0000081E090E00E949F012FEF57
:1002DE0080E792E0215080409040E1F700C000009E
:1002EE000E94F9022FEF80E792E02150804090406B
:1002FE00E1F700C000000E94F4022FEF80E792E0C9
:10030E00215080409040E1F700C00000789480E0DA
:10031E0090E00E947F0281E090E00E947F0280E0E8
:10032E0090E00E94A30281E090E00E94A302EFCF32
:10033E00892B09F141E050E065E070E082E090E049
:10034E000E94570041E050E066E070E082E090E0ED
:10035E000E94570041E050E065E070E083E090E0DD
:10036E000E94570041E050E065E070E083E090E0CD
:10037E000E94CF00089541E050E063E070E082E01B
:10038E0090E00E94570041E050E064E070E082E0AF
:10039E0090E00E94570041E050E064E070E083E09E
:1003AE0090E00E94570041E050E064E070E083E08E
:0803BE0090E00E94CF000895B9
:1003C6008AB3806F8ABB41E050E061E070E081E073
:1003D60090E00E94570041E050E062E070E081E06A
:1003E60090E00E94570041E050E063E070E081E059
:1003F60090E00E94570040E050E062E070E081E04B
:1004060090E00E94CF000E94EA0282E00E94200251
:1004160088E20E9420028CE00E94200286E00E9470
:1004260020020E94EA022FEF80E792E021508040EE
:0A0436009040E1F700C000000895B7
:10044000CF93C82F40E050E061E070E081E090E0A1
:100450000E94CF008BB38F709C2F907F892B8BBB1A
:100460000E94C7022FEF30E782E0215030408040E9
:10047000E1F700C000008BB3282F2F7030E1C39F3D
:10048000C0011124822B8BBB0E94C7028FEF90E723
:1004900022E0815090402040E1F700C00000CF9161
:0204A0000895BD
:1004A2001F920F920FB60F9211242F933F938F93A7
:1004B2009F9386B5209160003091610090E0821B8D
:1004C200930B909361008093600080E288BF8091DB
:1004D200600090916100892B41F48EB58F7B8EBDB7
:1004E200809162008F5F809362009F918F913F9114
:0C04F2002F910F900FBE0F901F901895D7
:1004FE00892B89F041E050E065E070E082E090E009
:10050E000E94CF0040E050E066E070E082E090E0B4
:10051E000E94CF00089541E050E063E070E082E079
:10052E0090E00E94CF0040E050E064E070E082E096
:08053E0090E00E94CF00089537
:10054600892B89F040E050E065E070E082E090E0C1
:100556000E94CF0041E050E066E070E082E090E06B
:100566000E94CF00089540E050E063E070E082E032
:1005760090E00E94CF0041E050E064E070E082E04D
:0805860090E00E94CF000895EF
:10058E0041E050E063E070E081E090E00E94CF0037
:10059E008FE99FE00197F1F700C0000040E050E0C6
:0E05AE0063E070E081E090E00E94CF000895CD
:1005BC008FB5826A8FBD8EB58B618EBD83EC99E051
:0805CC0097BD86BD8D9A0895CC
:1005D40081E00E9420028FE19EE40197F1F700C0C0
:0405E4000000089576
:0A05E80084B3846884BB8B9A0895E5
:0805F2008D9A8E98A29A0895DB
:0405FA000C9400005D
:00000001FF
